H000000000000HEADER RECORD FOR PERKESO EMPLOYER FILE                                                                                   
D123456789001EMP000001EMPLOYER ONE BERHAD                                                      ACR0000010000000001     0000000000123456     
D123456789002EMP000002EMPLOYER TWO SDN BHD                                                     ACR0000010000000002     0000000000234567     
D123456789003EMP000003EMPLOYER THREE SDN BHD                                                   ACR0000010000000003     0000000000345678     
D123456789004EMP000004EMPLOYER FOUR BERHAD                                                     ACR0000010000000004     0000000000456789     
D123456789005EMP000005EMPLOYER FIVE ENTERPRISE                                                 XXX0000010000000005     0000000000567890     
D123456789006EMP000006EMPLOYER SIX BERHAD                                                      ACR0000010000000006     0000000000678901     
D123456789007EMP000007EMPLOYER SEVEN SDN BHD                                                   ACR0000010000000007     0000000000789012     
D123456789008EMP000008EMPLOYER EIGHT SDN BHD                                                   ACR0000010000000008     0000000000890123     
D123456789009EMP000009EMPLOYER NINE CORPORATION                                                ACR0000010000000009     0000000000901234     
D123456789010EMP000010EMPLOYER TEN PLT                                                         ACR0000010000000010     0000000001012345     
F0000010                                                                                       
