HHEADERREC000 Company PERKESO Full Load File                                  20251015BATCH001                                                                        
D000000000001Johnathan Lim Wei Han                                                                                 NOT20251015000001       000000012345
D000000000002Nur Aisyah Bt Abdullah                                                                                NOT20251015000002       000000007890
D000000000003Michael Tan Kok Wai                                                                                   NOT20251015000003       000000005500
F0000003   TOTAL EMPLOYEE RECORDS                                                                                  FOOTER20251015          000000000000
